:100000000C943E000C9450000C9450000C94500042
:100010000C9450000C9450000C9450000C94500020
:100020000C9450000C9450000C9450000C94500010
:100030000C9478070C9450000C9450000C945000D1
:100040000C9450000C9450000C9450000C945000F0
:100050000C9450000C9450000C9450000C945000E0
:100060000C9450000C9450000C9450000C945000D0
:100070000C9450000C9450000C94500011241FBE9E
:10008000CFEFD8E0DEBFCDBF21E0A0E0B1E001C0FE
:100090001D92A130B207E1F70E94EE060C94B7075B
:1000A0000C94000020E0ADEEB0E08EEE90E0322F38
:1000B0003295307F3C93FC011192E83FF105E1F766
:1000C0002F5F2630A1F70895EDEEF0E02081108239
:1000D0008091EF00807C69F081E0ADEEB0E0EFEE62
:1000E000F0E0982F9295907F9C939081907C29F4DA
:1000F00001C080E02093ED0008958F5F863089F77E
:100100002093ED008FEF08958091EF00807C69F0DF
:100110009091EE00892F807E803241F0803431F062
:10012000803A21F0892F8F7108958FEF0895CF9332
:10013000DF932091EF002F7099F060E0CAEFD0E0DC
:10014000AFEEB0E02881FC01E60FF11D20836F5F68
:100150002C91462F50E02F7030E04217530794F354
:10016000DF91CF91089581E08093D80082E0809361
:10017000E2008CE08093E30087E38093E40081E079
:1001800008950E94B300882349F00E945200E8EDD0
:10019000F0E080818260808381E0089580E00895AE
:1001A0000F931F93CF93DF9300D000D0CDB7DEB76E
:1001B0008C01DC0111968C9111978C30B1F4199659
:1001C0008C911997803669F48C918295807F809309
:1001D000ED00EFEEF0E080818F7380831092EE00EF
:1001E0001C92F801118680E01EC50E9464008F3FBA
:1001F00009F414C590E6D80119969C9319978C932D
:100200008295807F8093ED00EEEEF0E01192E83F62
:10021000F105E1F7F8018181863009F4FEC188F427
:10022000833009F419C130F4813001F1823009F0D2
:10023000F1C49BC0843009F470C1853009F0EAC470
:10024000A7C1893009F44AC338F4873009F42EC2B3
:10025000883009F0DFC4B1C28A3021F08B3009F058
:10026000D9C42CC486818111CEC3DFC3F801838534
:10027000882369F194819295969597708581880F6E
:10028000880F880F890F8093F3009381929596953C
:1002900097708481880F880F880F890F8093F200F0
:1002A00092819295969597708381880F880F880F19
:1002B000890F8093F1008281880F880F880F8093C7
:1002C000F000EFEEF0E080818061808317C08281D2
:1002D0008695869586959381B0E29B9F800D11242B
:1002E0008093F300F80182818295880F807E80934D
:1002F000F200EFEEF0E080818F7E8083D8011696C9
:100300008C91882391F080E02AEF30E0D801179695
:10031000ED91FC911897E80FF11D9081F901908300
:100320008F5F16969C91891788F3D8011A968C9145
:10033000882331F0E0EFF0E080818460808305C0A5
:10034000E0EFF0E080818B7F8083EFEEF0E0908142
:10035000D80116968C91892B808380818F7380833E
:1003600080818064808380E05EC4F8018385882377
:1003700069F194819295969597708581880F880F81
:10038000880F890F8093F3009381929596959770CB
:100390008481880F880F880F890F8093F2009281E3
:1003A0009295969597708381880F880F880F890F93
:1003B0008093F1008281880F880F880F8093F0006E
:1003C000EFEEF0E080818061808317C082818695A6
:1003D000869586959381B0E29B9F800D1124809332
:1003E000F300F80182818295880F807E8093F2006D
:1003F000EFEEF0E080818F7E8083D80116968C919D
:10040000882391F080E02AEF30E0D8011796ED9133
:10041000FC911897E80FF11D9081F90190838F5F8F
:1004200016969C91891788F3D8011A961C921A97F0
:10043000E0EFF0E080818B7F8083EFEEF0E0908151
:1004400016968C91892B808380818F738083808125
:100450008064808380E0E7C3F8018385882369F1A5
:1004600094819295969597708581880F880F880F53
:10047000890F8093F300938192959695977084816C
:10048000880F880F880F890F8093F20092819295D0
:10049000969597708381880F880F880F890F8093B6
:1004A000F1008281880F880F880F8093F000EFEEB3
:1004B000F0E080818061808317C082818695869577
:1004C00086959381B0E29B9F800D11248093F30069
:1004D000F80182818295880F807E8093F200EFEE92
:1004E000F0E080818F7E808381E0D8011A968C9322
:1004F0001A97E0EFF0E0808184608083EFEEF0E017
:10050000908116968C91892B808380818F73808354
:1005100080818064808380E086C319821A821B8276
:100520001C821092F7009A819295969597708B8114
:10053000880F880F880F890F8093F6009981929514
:10054000969597708A81880F880F880F890F8093FE
:10055000F5008981880F880F880F24EF30E0F901BA
:100560008083EFEEF0E09081D80116968C91892B74
:100570008083D9018C918B7F8C938C918E7F8C930F
:1005800080818F73808380818068808380E04BC30B
:1005900019821A821B821C821092F7009A8192950E
:1005A000969597708B81880F880F880F890F80939D
:1005B000F60099819295969597708A81880F880F99
:1005C000880F890F8093F5008981880F880F880F25
:1005D00044EF50E0FA018083EFEEF0E09081D80123
:1005E00016968C911697892B80831A961C92DA01A5
:1005F0008C9184608C9380EF90E0DC012C912B7FB8
:100600002C93DA018C918E7F8C9380818F73808301
:1006100080818068808380E006C319821A821B82F1
:100620001C821092F7009A819295969597708B8113
:10063000880F880F880F890F8093F6009981929513
:10064000969597708A81880F880F880F890F8093FD
:10065000F5008981880F880F880F44EF50E0FA0178
:100660008083EFEEF0E09081D80116968C9116977A
:10067000892B808381E01A968C93DA018C918460B7
:100680008C9380EF90E0DC012C9124602C9380818E
:100690008F7D8083DA018C918E7F8C9380818F7324
:1006A000808380818068808380E0BDC2F80183857B
:1006B000882369F194819295969597708581880F2A
:1006C000880F880F890F8093F300938192959695F8
:1006D00097708481880F880F880F890F8093F200AC
:1006E00092819295969597708381880F880F880FD5
:1006F000890F8093F1008281880F880F880F809383
:10070000F000EFEEF0E080818061808317C082818D
:100710008695869586959381B0E29B9F800D1124E6
:100720008093F300F80182818295880F807E809308
:10073000F200EFEEF0E080818F7E80838FEF9FEFFD
:10074000DC0189839A83AB83BC838FEF8093F700AE
:100750009A819295969597708B81880F880F880F54
:10076000890F8093F60099819295969597708A816A
:10077000880F880F880F890F8093F5008981880F73
:10078000880F880F24EF30E0D9018C93EFEEF0E072
:100790009081D80116968C91892B8083D9018C91F8
:1007A0008B7F8C938C9181608C9380818F738083FD
:1007B00080818068808380E036C2F8018385882349
:1007C00069F194819295969597708581880F880F2D
:1007D000880F890F8093F300938192959695977077
:1007E0008481880F880F880F890F8093F20092818F
:1007F0009295969597708381880F880F880F890F3F
:100800008093F1008281880F880F880F8093F00019
:10081000EFEEF0E080818061808317C08281869551
:10082000869586959381B0E29B9F800D11248093DD
:10083000F300F80182818295880F807E8093F20018
:10084000EFEEF0E080818F7E80838FEF9FEFDC0101
:1008500089839A83AB83BC838FEF8093F7009A815F
:100860009295969597708B81880F880F880F890FC6
:100870008093F60099819295969597708A81880F5A
:10088000880F880F890F8093F5008981880F880F62
:10089000880F44EF50E0DA018C93EFEEF0E09081A6
:1008A000D80116968C911697892B80831A961C92E4
:1008B000DA018C9184608C9380EF90E0DC012C91C4
:1008C0002B7F2C93DA018C9181608C9380818F73C4
:1008D000808380818068808380E0A5C1F801838562
:1008E000882369F194819295969597708581880FF8
:1008F000880F880F890F8093F300938192959695C6
:1009000097708481880F880F880F890F8093F20079
:1009100092819295969597708381880F880F880FA2
:10092000890F8093F1008281880F880F880F809350
:10093000F000EFEEF0E080818061808317C082815B
:100940008695869586959381B0E29B9F800D1124B4
:100950008093F300F80182818295880F807E8093D6
:10096000F200EFEEF0E080818F7E80838FEF9FEFCB
:10097000DC0189839A83AB83BC838FEF8093F7007C
:100980009A819295969597708B81880F880F880F22
:10099000890F8093F60099819295969597708A8138
:1009A000880F880F880F890F8093F5008981880F41
:1009B000880F880F44EF50E0DA018C93EFEEF0E0FF
:1009C0009081D80116968C911697892B808381E0AF
:1009D0001A968C93DA018C9184608C9380EF90E06E
:1009E000DC012C9124602C9380818F7D8083DA013F
:1009F0008C9181608C9380818F73808380818068EB
:100A0000808380E010C180E02AEF30E0D8011796A3
:100A1000ED91FC911897E80FF11D9081F9019083F9
:100A20008F5F16969C91891788F319821A821B8210
:100A30001C821092F7009A819295969597708B81FF
:100A4000880F880F880F890F8093F60099819295FF
:100A5000969597708A81880F880F880F890F8093E9
:100A6000F5008981880F880F880F44EF50E0DA0184
:100A70008C93EFEEF0E09081D80116968C9116974A
:100A8000892B808381E01A968C93DA018C918460A3
:100A90008C9380EF90E0DC012C9124602C9380817A
:100AA00080628083DA018C918E7F8C9380818F733A
:100AB000808380818068808380E0B5C0F801838571
:100AC000882369F194819295969597708581880F16
:100AD000880F880F890F8093F300938192959695E4
:100AE00097708481880F880F880F890F8093F20098
:100AF00092819295969597708381880F880F880FC1
:100B0000890F8093F1008281880F880F880F80936E
:100B1000F000EFEEF0E080818061808317C0828179
:100B20008695869586959381B0E29B9F800D1124D2
:100B30008093F300F80182818295880F807E8093F4
:100B4000F200EFEEF0E080818F7E8083D801169670
:100B50008C91882391F080E02AEF30E0D80117963D
:100B6000ED91FC911897E80FF11D9081F9019083A8
:100B70008F5F16969C91891788F34FEF5FEFBA014C
:100B800049835A836B837C838FEF8093F7009A812C
:100B90009295969597708B81880F880F880F890F93
:100BA0008093F60099819295969597708A81880F27
:100BB000880F880F890F8093F5008981880F880F2F
:100BC000880F44EF50E0DA018C93EFEEF0E0908173
:100BD000D80116968C911697892B808381E01A96FE
:100BE0008C93DA018C9184608C9380EF90E0DC012F
:100BF0002C9124602C93808180628083DA018C9117
:100C000081608C9380818F738083808180688083F2
:100C100080E009C0F801118680E005C08FE1D801AD
:100C200019968C938FEF0F900F900F900F90DF918C
:100C3000CF911F910F910895EF92FF921F93CF9341
:100C4000DF93EC018985882309F491C08F3109F481
:100C500090C08F3F09F48FC088818295807F8093F8
:100C6000ED000E948400182F803259F020F4882370
:100C700009F483C072C0803409F464C0803A09F07A
:100C80006CC00F2EFFEEEF2EF12CF02DF7018081BE
:100C90008F708E838F8198850E9497008091F000DD
:100CA00082FB882780F98A87F701808184FF2DC025
:100CB00081E08B87E3EFF0E08081869586958695CD
:100CC0008D83A2EFB0E08C91908186958695869574
:100CD000F0E29F9F800D11248C83E1EFF0E0808192
:100CE0009C9186958695869520E2929F800D112491
:100CF0008B838091F0009081869586958695E0E2C1
:100D00009E9F800D11248A8313C01B86E3EFF0E0C1
:100D100080818295869587708B838091F200908187
:100D2000990F990F990F829586958770890F8A83FD
:100D30001987EFEEF0E080818F7380831092EE00D0
:100D400080E01CC080E48987EFEEF0E080818F7343
:100D500080831092EE0080E011C01987EFEEF0E082
:100D600080818F7380831092EE0082E007C082E062
:100D700005C082E003C082E001C081E0DF91CF9135
:100D80001F91FF90EF90089537990CC08AE090E092
:100D90000E94A107379BFECF8AE090E00E94A10746
:100DA00081E0089580E008958FEF84B980E00E948B
:100DB000750717B880E888B91AB81BB81DB81BB8F2
:100DC0000895E1E6F0E080E8808310820E94D40676
:100DD0000E94870780E00E94C1000895CF93DF93AF
:100DE000CDB7DEB76C970FB6F894DEBF0FBECDBFA0
:100DF0000E94E10678948AEA0E94750782E390E0F7
:100E00000E94A10780E00E947507CE0101969B8792
:100E10008A871C86CE010F96998F888F1A8E6894C8
:100E2000EE24E7F8F12C6894DD24D1F86894AA2424
:100E3000A3F8BB24B3940E94C4068823E1F343C003
:100E4000CE0141960E94D0008111FACF19821A82F8
:100E50001E830D831E86BD86D986CC82CE01039665
:100E60000E94D0008111FACFCE0103960E941C0689
:100E70008130D1F382E390E00E94A107CE01419638
:100E80000E941C06811112C08F850E94750788EE92
:100E900093E00E94A10788890E94750788EE93E07D
:100EA0000E94A10780E00E94750707C09A8ACE01C0
:100EB00041960E94D0008111FACF0F5F1F4F023878
:100EC000110551F4B8CF87010F2EF3E0CF2EF02D8E
:100ED0000F2EFCE09F2EF02D1F86188A1C8B0B8B8B
:100EE0001C8E1B8EDF8AAA8AABCF809585B90895A8
:100EF0001F920F920FB60F9211248F9381E080936F
:100F000000018F910F900FBE0F901F9018951092B7
:100F10006F00109280008AE0809381000895109203
:100F200000011092850010928400909389008093B4
:100F3000880082E080936F00809100018823E1F3B4
:100F400008950F931F93CF93DF938C01009751F077
:100F5000C0E0D0E088EE93E00E948F072196C01792
:100F6000D107C1F7DF91CF911F910F910895F894A8
:020F7000FFCFB1
:00000001FF
